:020000040800F2
:10000000205C002029030008C5560008394200087A
:1000100095540008BD1B0008596D00080000000041
:10002000000000000000000000000000690200085D
:10003000AF1F000800000000C5020008616600084C
:100040004303000843030008430300084303000878
:100050004303000843030008430300084303000868
:100060004303000843030008430300084303000858
:100070004303000843030008430300084303000848
:100080004303000843030008430300084303000838
:10009000C11B000843030008D11B000843030008EC
:1000A0004303000843030008430300084303000818
:1000B0004303000843030008430300084303000808
:1000C00043030008430300084303000843030008F8
:1000D00043030008396D0008430300084303000888
:1000E00043030008430300084303000843030008D8
:1000F0004303000841670008430300084303000866
:1001000043030008430300084303000843030008B7
:10011000296800084303000843030008430300085C
:100120004303000843030008430300084303000897
:100130004303000843030008430300084303000887
:100140004303000843030008430300084303000877
:10015000430300084303000843030008496D0008F7
:100160004303000843030008430300084303000857
:100170004303000843030008430300080000000095
:10018000430300084303000800F002F800F05CF8A5
:100190000AA090E8000C82448344AAF10107DA45E2
:1001A00001D100F051F8AFF2090EBAE80F0013F0D8
:1001B000010F18BFFB1A43F00103184760BF00008E
:1001C00080BF00000A444FF0000C10F8013B13F010
:1001D000070408BF10F8014B1D1108BF10F8015BA0
:1001E000641E05D010F8016B641E01F8016BF9D193
:1001F00013F0080F1EBF10F8014BAD1C0C1B09D1EA
:100200006D1E58BF01F801CBFAD505E014F8016B5B
:1002100001F8016B6D1EF9D59142D6D370470000ED
:100220000023002400250026103A28BF78C1FBD8FF
:10023000520728BF30C148BF0B6070471FB50BF095
:100240002CFD1FBD10B510BD00F0E5F91146FFF7FC
:10025000F5FF08F045FE00F003FA03B4FFF7F2FFE4
:1002600003BC00F007FA00002C4B19680868B0E8DE
:10027000F04F80F30988BFF36F8F4FF0000080F3D9
:10028000118870470000000008480068006880F38B
:1002900008884FF0000080F3148862B661B6BFF39F
:1002A0004F8FBFF36F8F00DF00BF00BF08ED00E08E
:1002B000DFF80C00016841F470010160704700BF75
:1002C00088ED00E0EFF30980BFF36F8F134B1A68DE
:1002D0001EF0100F08BF20ED108A20E9F04F1060CB
:1002E00009B44FF0500080F31188BFF34F8FBFF374
:1002F0006F8F09F07FFF4FF0000080F3118809BC79
:1003000019680868B0E8F04F1EF0100F08BFB0EC95
:10031000108A80F30988BFF36F8F70472000002098
:10032000EFF30580704700000948804709480047FF
:10033000FEE7FEE7FEE7FEE7FEE7FEE7FEE7FEE795
:10034000FEE7FEE704480549054A064B70470000F2
:100350002D6700088901000820560020205C00203D
:10036000205800202058002053EA020C00F0698039
:100370002DE9F04B4FF00006002B1FBFB3FA83F5B9
:1003800003FA05F424FA05F65E4012BF1643B2FAEA
:1003900082F502FA05F4C5F120051EBF22FA05FC1C
:1003A00044EA0C04203556EA044C4FEA144418BFC2
:1003B000641C4FF000084FF00009904271EB030CF1
:1003C00039D3002919BFB1FA81F701FA07F6B0FA5B
:1003D00080F700FA07F6C7F120071EBF20FA07FCD6
:1003E00046EA0C062037B6FBF4FCA7EB0507103FE6
:1003F00007F01F0BCBF120060CFA0BFB2CFA06F6CC
:1004000044BFB3460026202FA4BF5E464FF0000B2A
:100410005BEA060C08BF4FF0010B19EB0B09ABFBB5
:10042000027C48EB0608C01B06FB02CC0BFB03CC8E
:1004300071EB0C01C1E70B46024641464846BDE858
:10044000F08B13B54FF000004FF00001AFF30080C8
:10045000BDE81C407047032A40F2308010F0030CC6
:1004600000F0158011F8013BBCF1020F624498BF07
:1004700011F801CB00F8013B38BF11F8013BA2F1A4
:10048000040298BF00F801CB38BF00F8013B11F01F
:10049000030300F02580083AC0F0088051F8043BBF
:1004A000083A51F804CBA0E80810F5E7121D5CBF2C
:1004B00051F8043B40F8043BAFF30080D20724BF5F
:1004C00011F8013B11F801CB48BF11F8012B24BFF3
:1004D00000F8013B00F801CB48BF00F8012B704742
:1004E00010B5203AC0F00B80B1E81850203AA0E8CF
:1004F0001850B1E81850A0E81850BFF4F5AF5FEA03
:10050000027C24BFB1E81850A0E8185044BF18C9B5
:1005100018C0BDE810405FEA827C24BF51F8043B5C
:1005200040F8043B08BF7047D20728BF31F8023BB0
:1005300048BF11F8012B28BF20F8023B48BF00F844
:10054000012B704702F0FF0343EA032242EA024212
:1005500000F037B84FF0000200B5134694469646B7
:10056000203922BFA0E80C50A0E80C50B1F12001C6
:10057000BFF4F7AF090728BFA0E80C5048BF0CC074
:100580005DF804EB890028BF40F8042B08BF7047D2
:1005900048BF20F8022B11F0804F18BF00F8012B44
:1005A000704770477047704710B500F02FF800682B
:1005B00010BD10B5044600F029F8046010BD4FF0DE
:1005C00000020429C0F0128010F0030C3FF4C4AF05
:1005D000CCF1040CBCF1020F18BF00F8012BA8BF2E
:1005E00020F8022BA1EB0C01FFF7B6BF5FEAC17C3C
:1005F00024BF00F8012B00F8012B48BF00F8012BA5
:100600007047000000487047C05500200048704700
:10061000C055002070477546FFF7F4FFAE46050051
:100620006946534620F00700854618B020B5FFF70D
:1006300089FEBDE820404FF000064FF000074FF064
:1006400000084FF0000B21F00701AC46ACE8C009F0
:10065000ACE8C009ACE8C009ACE8C0098D467047F9
:1006600010B50446AFF300802046BDE81040FFF708
:10067000F4BD000001491820ABBEFEE726000200D1
:1006800003498882C88208834883888370470000B2
:100690009805002010B5104890ED010A0F4880ED34
:1006A000010A0D4890ED020A0C4880ED020A0A4842
:1006B00090ED030A094880ED030AC82008F02AFCDF
:1006C000054890ED000A054880ED000A4FF4487097
:1006D000FFF7D6FF10BD0000BC05002098050020E4
:1006E00008B546E0002000902248828BD0ED040A35
:1006F000B0EE600A002304211F4801F00DFD002028
:1007000000901C48428BD0ED030AB0EE600A002333
:100710000321194801F000FD002000901548028BCC
:10072000D0ED020AB0EE600A00230221124801F067
:10073000F3FC002000900F48C28AD0ED010AB0EE11
:10074000600A002301210C4801F0E6FC0020009023
:100750000848828AD0ED000AB0EE600A00231946EC
:10076000054801F0D9FC044806F01AFB0A2008F0FD
:10077000D1FBB7E798050020685400200DE007483A
:10078000006A10B1012804D100E002E000F03EF858
:1007900000BF00BF052008F0BDFBF0E79805002072
:1007A00010B51748D0ED021AB0EE611AD0ED011A5B
:1007B000F0EE610AD0ED001AB0EE610A03F03EFDE2
:1007C000104890ED000A104880ED000A4FF4967032
:1007D00008F0A0FB0B4890ED010A0B4880ED010AE0
:1007E000084890ED020A084880ED020A054890ED9D
:1007F000030A054880ED030AC82008F08BFB10BDF2
:10080000D4050020AC5500209805002010B5044AFE
:100810005168106801F02AF900200249086210BDF1
:10082000CC0500209805002070B505460C46072C25
:1008300001DB092C01DD0D2C05DB9FED8C0A8C48BA
:1008400080ED040A04E09FED8B0A894880ED040ADC
:10085000012D04D0022D56D0032D53D1ABE0FA2048
:10086000FFF70EFFC820844948839FED841ADFED0F
:10087000840A9FED840A01F06BF99FED830A834897
:1008800080ED000A9FED820A80ED010A9FED810A4A
:1008900080ED020AFFF784FF642008F03BFB7448F8
:1008A00090ED040A744880ED040A0146898B01F139
:1008B000640008F02FFBC820FFF7E2FE4FF49670AB
:1008C0006D4948837148D0ED021A9FED732A71EE8D
:1008D000821AB0EE611AD0ED011AB3EE0E2A71EE53
:1008E000C21AF0EE610AD0ED001A9FED6C2A71EE8B
:1008F000821AB0EE610A01F0F5F8C8205E4948831B
:10090000FFF7C8FEAFE0FA20FFF7BAFEC8205A4949
:10091000888248839FED621AFAEE080A9FED610A09
:1009200001F016F9142008F0F5FA9FED5F0A574818
:1009300080ED000ABBEE0E0A80ED010A9FED5B0A16
:1009400080ED020AFFF72CFF642008F0E3FA484824
:1009500090ED040A484880ED040A0146898B01F1B4
:10096000640008F0D7FAC820FFF78AFE4FF49670AB
:10097000414948834548D0ED021A9FED472A71EE60
:10098000821AB0EE611AD0ED011AB2EE002A71EEB1
:10099000821AF0EE610AD0ED001A9FED362A71EE50
:1009A000821AB0EE610A01F09DF8C82032494883EE
:1009B000FFF770FE57E0FA20FFF762FEC8202E49CD
:1009C000888248839FED3A1ADFED3A0A9FED3A0A92
:1009D00001F0BEF83C2008F09DFA9FED380A2B4844
:1009E00080ED000A9FED360A80ED010A9FED350A81
:1009F00080ED020AFFF7D4FE642008F08BFA1C4851
:100A000090ED040A1C4880ED040A0146898B01F12F
:100A1000640008F07FFAC820FFF732FE4FF49670AA
:100A2000154948831948D0ED021A9FED1B2A71EE33
:100A3000821AB0EE611AD0ED011A9FED232A71EEF1
:100A4000821AF0EE610AD0ED001A9FED0D2A71EEC8
:100A5000821AB0EE610A01F045F8C82006494883C1
:100A6000FFF718FE00BF00BF70BD000000002C4261
:100A7000AC5500200000A04298050020000064430F
:100A8000000048420000B4C2000016C3D405002094
:100A900000009A420000084300008C4200007042AF
:100AA000008080430000DCC200003BC300000A431A
:100AB0000000784300009AC200009CC20000FAC205
:100AC0000000E6C20000054300000C4210B50446D9
:100AD000062C03DD0A2C07DB0C2C05DC9FEDFE0A3F
:100AE000FE4880ED040A04E09FEDFD0AFB4880ED1E
:100AF000040A132C59D2DFE814F0580013005900EF
:100B00009B00E10075016802FC025E03B9034B041F
:100B1000A104F8044E05A905FD059206ED0642075D
:100B20009FEDF00AF04880ED000A9FEDF00A80ED9D
:100B3000010A9FEDEF0A80ED020AC820FFF7A0FD31
:100B40004FF49670EB490883FFF72AFEC82008F09F
:100B5000E1F9E24890ED040AE64880ED040A014616
:100B6000898B01F1640008F0D5F9C820FFF788FDF2
:100B7000DD48D0ED021A9FEDE02A71EE821AB0EE48
:100B8000611AD0ED011A9FEDDD2A71EEC21AF0EE66
:100B9000610AD0ED001A9FEDD92A71EEC21AB0EEAB
:100BA000610A00F09FFFFFF775FDA1E29FEDD40AF7
:100BB000CD4880ED000ABBEE040A80ED010A9FEDEE
:100BC000D10A80ED020AC820FFF75AFD4FF4C87021
:100BD000C8490883FFF7E4FDC82008F09BF9BF4827
:100BE00090ED040AC34880ED040A0146898B01F1A7
:100BF000640008F08FF9C820FFF742FDBA48D0ED35
:100C0000021A9FEDBD2A71EE821AB0EE611AD0ED84
:100C1000011AF0EE610AD0ED001A9FEDB82A71EECC
:100C2000C21AB0EE610A00F05DFFFFF733FDBCE7CA
:100C30009FEDB50AAC4880ED000A9FEDB40A80ED47
:100C4000010A9FEDAB0A80ED020AC820FFF718FDEC
:100C50004FF4C870A7490883FFF7A2FDC82008F029
:100C600059F99E4890ED040AA24880ED040A014615
:100C7000898B01F1640008F04DF9C820FFF700FDF1
:100C80009948D0ED021A9FED9C2A71EE821AB0EEBF
:100C9000611AD0ED011A9FED992A71EE821AF0EED9
:100CA000610AD0ED001A9FED952A71EEC21AB0EEDE
:100CB000610A00F017FFFFF7EDFC76E76420FFF70D
:100CC000DFFC9FED930A8B4880ED040A9FED910AAB
:100CD00080ED030A9FED900A80ED020AFA2008F0E9
:100CE00019F9C820FFF7CCFCB2EE040A814880ED68
:100CF000010AC82008F00EF9BAEE0E0A7D4880ED10
:100D0000020A9FED860A80ED030AC82008F002F966
:100D10009FED790A774880ED000AC82008F0FAF8BC
:100D20009FED7F0A734880ED030AB1EE040A80ED5F
:100D3000010AC82008F0EEF89FED7A0A6D4880EDB0
:100D4000040A9FED790A80ED030A9FED780A80ED91
:100D5000020AC820FFF794FC9FED750A624880EDF7
:100D6000000A9FED740A80ED010A9FED730A80ED81
:100D7000020AFFF715FD594890ED040A5D4880ED21
:100D8000040AC82008F0C6F89FED6B0A594880EDA8
:100D9000020ABBEE040A80ED030AC82008F0BAF884
:100DA0009FED661ADFED5A0A9FED590A00F09AFE90
:100DB000C82008F0AFF89FED5D0A4E4880ED020AAA
:100DC0009FED5F0A80ED010A9FED550A80ED030A51
:100DD0004FF4C87008F09EF8FFF75CFC642008F040
:100DE00099F8E2E66420FFF74BFC9FED490A414881
:100DF00080ED040A9FED470A80ED030A9FED460A45
:100E000080ED020AFA2008F085F8C820FFF738FCC8
:100E1000BBEE0E0A374880ED010A4FF4967008F0D9
:100E200079F89FED480A334880ED030AC82008F09E
:100E300071F89FED3F0A2C4880ED000A9FED3B0AB8
:100E400080ED010A9FED3C0A80ED020AD0ED021A06
:100E5000B0EE611AD0ED011AF0EE610AD0ED001A81
:100E6000B0EE610A03F0EAF99FED370A214880ED00
:100E7000020A642008F04EF8184890ED020A1D4856
:100E800080ED020A154890ED010A1A4880ED010A2A
:100E9000124890ED030A174880ED030A4FF496704C
:100EA00008F038F89FED220A0F4880ED000A9FED08
:100EB0001F0A80ED010A9FED100A80ED020AD0EDB5
:100EC000021AB0EE611AD0ED011AF0EE610AD0ED0F
:100ED000001AB0EE610A39E000002C42AC55002047
:100EE0000000A04200002A43D40500200000FA427E
:100EF00000004B43980500200000484200002042BB
:100F0000000025430000344300002343000023C3B6
:100F10000000F042000002C3000020C20000DCC25A
:100F20000000B4C20000AA4200008CC20000000011
:100F300000007A4300001643000070420000C842DF
:100F40000000F0C2000070C200000CC203F076F98D
:100F5000FC4890ED010AFC4880ED010AF94890ED4B
:100F6000020AF94880ED020AF64890ED030AF648B5
:100F700080ED030AC820FFF783FBF24890ED040AD6
:100F8000F14880ED040A4FF4C87007F0C3FF9FEDED
:100F9000EF1A5FED1A0A9FEDEE0A00F0A3FDB3EE23
:100FA0000E0AE94880ED000AC82007F0B3FF1FEDE4
:100FB0001E0AE54880ED020AFA2007F0ABFFFFF7B2
:100FC00069FB642007F0A6FFEFE56420FFF758FBFC
:100FD0001FED310ADC4880ED040A1FED320A80ED76
:100FE000030A1FED330A80ED020AFA2007F092FF90
:100FF000C820FFF745FBB2EE040AD34880ED010A92
:10100000C82007F087FFBAEE0E0ACF4880ED020A2B
:101010001FED3E0A80ED030AC82007F07BFF9FED1D
:10102000CD0AC94880ED000AC82007F073FF1FED04
:10103000440AC54880ED030AB1EE040A80ED010AB6
:10104000C82007F067FF1FED490ABF4880ED040A7A
:101050001FED4B0A80ED030A1FED4C0A80ED020ADA
:10106000C820FFF70DFB1FED4E0ABB4880ED000ABC
:101070009FEDBA0A80ED010A1FED510A80ED020AC8
:10108000FFF78EFBAF4890ED040AAF4880ED040AED
:10109000C82007F03FFF1FED580AAB4880ED020A59
:1010A000BBEE040A80ED030AC82007F033FF1FEDF2
:1010B0005D1A5FED5D0A1FED6A0A00F013FDC8209E
:1010C00007F028FF1FED670A9F4880ED020A1FED19
:1010D000640A80ED010A1FED6E0A80ED030A4FF4E9
:1010E000C87007F017FFFFF7D5FA642007F012FF6A
:1010F00050E24FF49670FFF7C3FA4FF4C87092496C
:1011000008839FED970A084680ED000A1FED771AC5
:10111000DFED940A9FED940A00F01AFD1FED8F0A8F
:101120008D4880ED000A9FED910A80ED010A9FED48
:10113000900A80ED020A4FF41670FFF7A1FA4FF4FF
:10114000FA7081494883FFF72BFB4FF4E17007F0F9
:10115000E1FE7C4890ED040A7B4880ED040A0146DC
:10116000898B01F1640007F0D5FE4FF49670FFF70C
:1011700087FA4FF4C870744908837748D0ED021A93
:101180009FED7C2A71EE821AB0EE611AD0ED011A41
:10119000B2EE0E2A71EE821AF0EE610AD0ED001A5C
:1011A000B3EE0E2A71EEC21AB0EE610A00F09AFC9C
:1011B000FFF770FAEEE14FF4C870FFF761FA1FED28
:1011C000A31AF9EE080A9FED6C0A00F0C1FC642036
:1011D00007F0A0FE9FED690A5F4880ED000A9FEDD1
:1011E000680A80ED010A9FED670A80ED020A4FF45C
:1011F0001670FFF745FA4FF4FA7053494883FFF72A
:10120000CFFA4FF4C87007F085FE4E4890ED040AFF
:101210004D4880ED040A0146898B01F1640007F016
:1012200079FE4FF49670FFF72BFA4FF4C8704649D9
:1012300008834948D0ED021A9FED4E2A71EE821ABA
:10124000B0EE611AD0ED011AF0EE610AD0ED001A8D
:10125000B3EE042A71EEC21AB0EE610A00F042FC4D
:10126000C82039490883FFF715FAE4E34FF4967074
:1012700007F050FE962007F04DFE4FF4C870FFF7C0
:10128000FFF94FF4FA70304908831FEDE50A08466C
:1012900080ED000A1FEDD91ADFED3B0A9FED2D0A04
:1012A00000F056FC642007F035FE9FED380A2A480E
:1012B00080ED000A9FED300A80ED010A9FED310AB2
:1012C00080ED020A4FF41670FFF7DAF94FF4FA7066
:1012D0001D494883FFF764FA4FF4C87007F01AFEFF
:1012E000184890ED040A184880ED040A0146898BDD
:1012F00001F1640007F00EFE4FF49670FFF7C0F99D
:101300004FF4C870104908831348D0ED021A9FEDBE
:10131000192A71EE821AB0EE611AD0ED011AB2EEFE
:101320000E2A71EEC21AF0EE610AD0ED001AB3EE89
:101330000E2A71EEC21AB0EE610A00F0D3FBFFF77D
:10134000A9F978E3AC550020980500200000B442CC
:101350000000484300000243D4050020000016C3EB
:101360000000EC4200000CC3000012439A9919C31C
:101370000000914200008C4200001C43CDCC2C4365
:10138000CDCC14C1000098420000BE4233B32543C7
:10139000C820FFF775F99FEDFE1ADFEDFE0A1FED7D
:1013A0000E0A00F0D5FB9FEDFC0AFC4880ED000A18
:1013B0009FEDFB0A80ED010A9FEDFA0A80ED020A1B
:1013C0004FF4C870FFF75CF94FF49670F649088344
:1013D000FFF7E6F9C82007F09DFDF44890ED040AF8
:1013E000F14880ED040A0146898B01F1640007F0A1
:1013F00091FDC820FFF744F94FF49670EA4908833D
:10140000E648D0ED021A1FED252A71EE821AB0EEE1
:10141000611AD0ED011AB2EE0E2A71EE821AF0EEC8
:10142000610AD0ED001AB3EE0E2A71EEC21AB0EEC8
:10143000610A00F057FBFFF72DF9FCE2C820FFF727
:101440001FF99FEDDB0AD84880ED040A9FEDD91AF9
:10145000F9EE080A9FEDD80A00F07AFB9FEDD70A53
:10146000CE4880ED000AB9EE0E0A80ED010A1FEDAC
:101470003B0A80ED020A4FF4C870FFF701F94FF400
:101480009670C9494883FFF78BF9C82007F042FDE1
:10149000C64890ED040AC44880ED040A0146898BD1
:1014A00001F1640007F036FDC820FFF7E9F84FF4BA
:1014B0009670BD494883B948D0ED021A1FED532AF2
:1014C00071EE821AB0EE611AD0ED011AF0EE610AE7
:1014D000D0ED001AB3EE0E2A71EEC21AB0EE610A18
:1014E00000F000FBFFF7D6F8A5E2C820FFF7C8F828
:1014F0009FEDB01ADFEDB20A9FEDB20A00F028FBB3
:101500009FEDB10AA54880ED000A9FEDB00A80ED7D
:10151000010A1FED640A80ED020A4FF4C870FFF75C
:10152000AFF84FF49670A0490883FFF739F9C82047
:1015300007F0F0FC9D4890ED040A9B4880ED040AFA
:101540000146898B01F1640007F0E4FCC820FFF735
:1015500097F84FF49670944908839048D0ED021A9A
:101560001FED7C2A71EE821AB0EE611AD0ED011ADD
:10157000B3EE092A71EEC21AF0EE610AD0ED001A3C
:10158000B3EE0E2A71EEC21AB0EE610A00F0AAFAAA
:10159000FFF780F84FE2642007F0BCFC4FF4967030
:1015A000FFF76EF89FED8A1ADFED8A0A9FED8A0A2F
:1015B00000F0CEFA9FED890A784880ED000A9FED91
:1015C000880A80ED010AB3EE090A80ED020A4FF4A1
:1015D000FA70FFF755F84FF4C87073490883FFF7A6
:1015E000DFF84FF4C87007F095FC704890ED040ADE
:1015F0006D4880ED040A0146898B01F1640007F013
:1016000089FCC820FFF73CF84FF4C870664908838E
:101610006248D0ED021A1FEDA92A71EE821AB0EECF
:10162000611AD0ED011A9FED6F2A71EE821AF0EE69
:10163000610AD0ED001A9FED6C2A71EEC21AB0EE6D
:10164000610A00F04FFAFFF725F8F4E14FF49670C5
:10165000FFF716F89FED5E1AF8EE080A1FEDC40AB0
:1016600000F076FA9FED610A4C4880ED000ABAEE70
:10167000060A80ED010AB3EE0A0A80ED020A4FF471
:10168000FA70FEF7FDFF4FF4C87047490883FFF773
:1016900087F84FF4C87007F03DFC444890ED040A09
:1016A000414880ED040A0146898B01F1640007F08E
:1016B00031FCC820FEF7E4FF4FF4C8703A490883B4
:1016C0003648D0ED021A1FEDD52A71EE821AB0EE1F
:1016D000611AD0ED011AF0EE610AD0ED001A9FED0B
:1016E000442A71EEC21AB0EE610A00F0FBF9FEF76F
:1016F000D1FFA0E14FF49670FEF7C2FF9FED341AC0
:10170000DFED3C0A9FED3C0A00F022FA9FED3B0A18
:10171000224880ED000A9FED3A0A80ED010AB3EEFF
:10172000080A80ED020A4FF4FA70FEF7A9FF4FF4A1
:10173000C8701D490883FFF733F84FF4C87007F0ED
:10174000E9FB1A4890ED040A174880ED040A0146A7
:10175000898B01F1640007F0DDFBC820FEF790FFE4
:101760004FF4C870104908830C48D0ED021A9FED61
:10177000252A71EE821AB0EE611AD0ED011A9FEDA2
:10178000192A71EEC21AF0EE610AD0ED001A3BE0A0
:1017900000001B43000007C300002643D4050020BF
:1017A000000019C30000944298050020AC550020A9
:1017B0000000DC42000016430000114300002E43ED
:1017C0000000E442000009430000274300801A4360
:1017D0000000CC42000000C3000040430080724380
:1017E000CDCC1AC30000204200007042CDCC77431C
:1017F000000048420000CE4200004A43008070438F
:1018000000001E4300008C421FED072A71EEC21A31
:10181000B0EE610A00F066F9FEF73CFF0BE16420D0
:1018200007F078FB4FF4AF70FEF72AFF9FED831AA5
:10183000DFED830A9FED830A00F08AF91FED190A94
:10184000814880ED000A1FED1A0A80ED010A9FED24
:101850007F0A80ED020A4FF41670FEF711FF4FF475
:10186000FA707B490883FEF79BFF4FF4967007F0F0
:1018700051FB784890ED040A754880ED040A014652
:10188000898B01F1640007F045FBC820FEF7F8FEE4
:101890004FF4C8706E4908836B48D0ED021A1FEDF3
:1018A0002C2A71EE821AB0EE611AD0ED011A1FEDEA
:1018B000332A71EE821AF0EE610AD0ED001A1FEDA4
:1018C000362A71EEC21AB0EE610A00F00BF9FEF78B
:1018D000E1FEB0E04FF4AF70FEF7D2FE9FED5E1A6E
:1018E000F9EE040A9FED5D0A00F032F91FED410A9E
:1018F000554880ED000ABAEE060A80ED010A9FED18
:10190000580A80ED020A4FF41670FEF7B9FE4FF444
:10191000C8704F4908834883FEF742FF4FF4967022
:1019200007F0F8FA4B4890ED040A494880ED040AA4
:101930000146898B01F1640007F0ECFAC820FEF73C
:101940009FFE4FF4C870424908833F48D0ED021A09
:101950001FED592A71EE821AB0EE611AD0ED011A0C
:10196000F0EE610AD0ED001A1FED5F2A71EEC21A87
:10197000B0EE610A00F0B6F8FEF78CFE5BE04FF4C3
:10198000167007F0C7FA4FF4AF70FEF779FE9FEDBF
:10199000321ADFED340A1FED680A00F0D9F81FEDA6
:1019A000690A294880ED000A1FED6B0A80ED010AE3
:1019B0009FED2D0A80ED020A4FF41670FEF760FECF
:1019C0004FF4FA7022490883FEF7EAFE4FF496704E
:1019D00007F0A0FA1F4890ED040A1D4880ED040AA4
:1019E0000146898B01F1640007F094FAC820FEF7E4
:1019F00047FE4FF4C870164908831348D0ED021A09
:101A00001FED852A71EE821AB0EE611AD0ED011A2F
:101A10001FED8C2A71EEC21AF0EE610AD0ED001AA9
:101A20001FED8D2A71EEC21AB0EE610A00F05AF86D
:101A3000FEF730FE00BF00BF10BD000000002243D3
:101A40000000E6C200003643D40500200000CB426F
:101A500098050020AC55002000002C4300003E43B8
:101A60000000E042000004430000C84270B5054693
:101A70000C46072C01DB092C01DD0D2C13DB214664
:101A80002846FEF7D1FE4FF4C87007F043FA20460F
:101A9000FFF71CF84FF4C87007F03CFA002010491B
:101AA000086048601AE0062C01DC002C03DA0A2CDE
:101AB00014DB0C2C12DC2046FFF708F84FF4C8703A
:101AC00007F028FA21462846FEF7AEFE4FF4C8700C
:101AD00007F020FA002002490860486070BD00004D
:101AE000CC05002010B52DED048BB0EE408AF0EE51
:101AF000608AB0EE419AB0EE491AF0EE680AB0EE94
:101B0000480A02F09BFB104890ED020A0F4880ED56
:101B1000020A0D4890ED010A0C4880ED010A0A48BE
:101B200090ED030A094880ED030A962007F0F2F9C8
:101B3000054890ED000A054880ED000A642007F092
:101B4000E9F9BDEC048B10BDAC55002098050020D0
:101B500010B52DED048BB0EE408AF0EE608AB0EE49
:101B6000419AB0EE491AF0EE680AB0EE480A02F067
:101B700065FB104890ED000A0F4880ED000AFA203E
:101B800007F0C8F90B4890ED020A0B4880ED020AF5
:101B9000084890ED010A084880ED010A054890EDDB
:101BA000030A054880ED030A642007F0B3F9BDEC91
:101BB000048B10BDAC5500209805002000BFFEE747
:101BC00010B5024800F027FD10BD000010060020EF
:101BD00010B5024800F01FFD10BD000010060020E7
:101BE00030B58BB0054613492868096888421BD177
:101BF000012006900020079001200890002001900D
:101C00000290039004900590012009900E200A9004
:101C100001A9284600F094FB284600F050FF02215D
:101C2000284600F0CDFA04460CB100F033FA0BB0B0
:101C300030BD00001006002000B587B001200D491E
:101C4000087100210B4801740177012180F82810E8
:101C50000120094908740860182208A101A8FEF7AC
:101C60003FFC4FF6FF73162201A90A4802F07AFAE8
:101C700007B000BD5855002088550020FFFFFF74B5
:101C8000312E7478743D223030302B30303022FFCA
:101C9000FFFF00000407002026E00122134914483A
:101CA00002F0B6F91348006813490968884206D063
:101CB000104800681049086000200E4948610D482E
:101CC000006820B1012805D0022809D105E003F001
:101CD000DDFC05E003F0E0FB02E003F013FC00BFD5
:101CE00000BF052007F016F9D7E70000B403002075
:101CF0000407002088550020BC03002070B505466D
:101D00000C4616463A48007838B100203849087029
:101D100038490860401E3849086036480068052880
:101D200062D2DFE800F0030D1C485600324621461F
:101D3000284603F0C9FC10B101202E49086053E089
:101D40009FED2E0A84ED000A2D48807918B92D48A0
:101D500090F8360010B102202649086044E02A4875
:101D6000006A70B924480068401C2349086008468E
:101D70000068032805D1001F086003201D49086082
:101D800032E000200BE021491B4A12688A5C891D61
:101D9000095C8A4202D1411C1D4A5160401C022844
:101DA000F1DD1A4814490968405C194908600120AE
:101DB0001549086218E09FED170A84ED000A1048E3
:101DC000807F10B90F48807F10B104200949086056
:101DD0000AE032462146284603F076FC18B101207D
:101DE0000349087070BD00BF00BF0020FAE7000083
:101DF000180400201C040020200400200080BBC424
:101E0000480500200805002098050020A055002066
:101E1000CC05002000C05A4570B505460C46164654
:101E20003E48007858B13E493E4800F025F9002070
:101E30003A4908703C490860401E3C4908603A48ED
:101E40000068052867D2DFE800F0030D1B4D5B003A
:101E500032462146284603F037FC10B101203249B2
:101E6000086058E09FED320A84ED000A2C48807823
:101E700028B12C48807910B902202B4908604AE02B
:101E80002C48006A68BB32462146284603F02CFDE8
:101E900038B326480068401C24490860084600689A
:101EA000032805D1001F086003201F49086032E0A5
:101EB00000200BE020491D4A12688A5C891D095CDC
:101EC0008A4202D1011D1D4A5160401C0228F1DDE9
:101ED000194816490968405C1849086001201549ED
:101EE000086218E09FED160A84ED000A1548807F0D
:101EF00010B91548807F10B104200B4908600AE032
:101F000032462146284603F0DFFB18B10120034981
:101F1000087070BD00BF00BF0020FAE77C040020FD
:101F2000880500208804002080040020840400200C
:101F30000080BBC498050020A3550020CC050020DC
:101F400000C05A4548050020080500202DE9F0434F
:101F500087B007460C4615461E464FF001084FF065
:101F6000000900200390049001950596384600F082
:101F700037FB00F0FF0904E0384600F031FB00F0C9
:101F8000FF09B9F1000FF7D0012000F039FE01235D
:101F9000224601A9384600F028F98046B8F1000F22
:101FA00003D0022007B0BDE8F0830020FAE77047B5
:101FB0002DE9F0410446884615461E46069F2948ED
:101FC000007830B100202849086028490870254968
:101FD000087014B141F2707000E0254800EE100A5C
:101FE000B8EEC00A87ED000A1F48006820B101283A
:101FF00012D0022833D11CE03CB11E4890F83E00BC
:1020000048B101201849086005E01A48807910B1EC
:1020100001201549086022E01648807F40B1022067
:102020001149086011480078401C40B20F490870FF
:1020300015E00E4890F9001008F1010081420AD124
:102040003A463146284603F03FFB38B101200549A6
:102050000870BDE8F08100200349086000BF00BFA0
:102060000020F6E7D0030020D4030020D80300208E
:1020700090E8FFFF8804002010B50246002004E02D
:10208000002302EBC004E371401C0828F8DB0020A9
:10209000887010BD72B600BFFEE770B504460D46ED
:1020A0002188284603F0EFFEA178284603F0CBFEF6
:1020B000E178284603F0C7FEE278211D284603F0A8
:1020C000CAFE284603F036FE06463146284603F08F
:1020D000BAFE70BDF0B58FB004460E4615461F46D9
:1020E00044F61240ADF804008DF806608DF80750F4
:1020F000002003E03A5C02A90A54401CA842F9DB24
:1021000001A86168FFF7C9FF204604F049FE606836
:1021100003F095FE0FB0F0BD2DE9F0432DED028BDD
:1021200085B006460F46B0EE408A14461D46DDF8DF
:1021300038804FF0070903AA0721684603F024FE00
:102140009FED1D0AB4EEC08AF1EE10FA04DD9FED9A
:102150001A0AB0EE408A0AE09FED180AB4EEC08A6F
:10216000F1EE10FA03D29FED150AB0EE408A39461F
:10217000684603F068FEB2EE040A28EE000ABDEEDF
:10218000C00A10EE100A01B2684603F073FE214641
:10219000684603F078FE2946684603F074FE0DF1A8
:1021A0000D03072208213046FFF794FF002005B0F9
:1021B000BDEC028BBDE8F08300003443000034C363
:1021C00010B5024692F82030012B01D0022B06D127
:1021D00010684069084314686061002010BD506AAF
:1021E00040F4802050620120F8E7F0B504460D4627
:1021F0001E4694F8207020688368A86800B900E043
:1022000000BF012F01D0022F7CD103F0806030B9D4
:1022100003F0006018B903F08050002873D0C3F3B6
:102220000161022905D9606A40F400006062012062
:10223000F0BD012088403060A86860B9B5F800C0E2
:10224000E86840EA4C5C206800F5C07000EB0110C3
:10225000C0F800C00FE0D5E901C040EACC00D5F8D5
:102260000CC040EA0C00D4F800C00CF5C07C0CEBAC
:10227000011CCCF80000D5F810C0206800F5C07033
:1022800000EB0110C0F804C0287D01280ED12068A1
:1022900000F5C07000EB0110406840F4807C2068BD
:1022A00000F5C07000EB0110C0F804C0D079000642
:1022B00092F806C040EA0C4092F805C040EA0C2CA7
:1022C00010794CEA000C206800F5C07000EB01109A
:1022D000C0F80CC0D078000692F802C040EA0C406A
:1022E00092F801C040EA0C2092F800C040EA0C00CD
:1022F000D4F800C00CF5C07C0CEB011CCCF8080035
:10230000206801E016E00FE000F5C07000EB01105E
:10231000006840F0010C206800F5C07000EB01106F
:10232000C0F800C0002083E7606A40F400106062DB
:1023300001207DE7606A40F480206062012077E739
:10234000F0B504460A46216894F82050012D01D0CA
:10235000022D7ED1424901F50071086840F001006C
:102360000860086820F47C5008600868566A40EAF3
:1023700006200860107D00F01F06012000FA06F319
:10238000C8699843C861A1F50071D069C8B9D1F88E
:102390000C029843C1F80C02908880B2968940EAFA
:1023A000064601F51070576940F83760108880B212
:1023B000168940EA064601F51070576900EBC70020
:1023C0004660D069012819D1D1F80C021843C1F830
:1023D0000C02908880B2168840EA064601F510701B
:1023E000576940F83760908980B2168940EA0646FE
:1023F00001F51070576900EBC7004660906928B975
:10240000D1F804029843C1F8040204E0D1F80402B0
:102410001843C1F80402106928B9D1F8140298438E
:10242000C1F8140204E0D1F814021843C1F81402F0
:10243000106A012804D1D1F81C021843C1F81C020B
:10244000D1F8000220F00100C1F800020020F0BD28
:10245000FFE7606A40F4802060620120F7E7000037
:1024600000640040704770B5044694F82050012D78
:1024700001D0022D7DD151B92068C06800F0030061
:1024800080B9606A40F400106062012070BD20686D
:10249000006900F0030028B9606A40F4001060622F
:1024A0000120F3E7206800F5D87000EB0110006808
:1024B00000F004009060906840B9206800F5D87082
:1024C00000EB01100068400D106007E0206800F587
:1024D000D87000EB01100068C0085060206800F55B
:1024E000D87000EB0110006800F00200D060206896
:1024F00000F5D87000EB0110406800F00F0010618B
:10250000206800F5D87000EB0110406800F47F40AF
:10251000000A9061206800F5D87000EB0110406857
:10252000000C5061206800F5D87000EB0110806845
:102530001870206800F5D87000EB0110806800F476
:102540007F40000A5870206800F5D87000EB011039
:10255000806800F47F00000C9870206800F5D87047
:1025600000EB01108068000ED870206800F5D8706C
:1025700000E02FE000EB0110C0681871206800F542
:10258000D87000EB0110C06800F47F40000A587159
:10259000206800F5D87000EB0110C06800F47F00DF
:1025A000000C9871206800F5D87000EB0110C0682D
:1025B000000ED87131B92068C06840F0200026684C
:1025C000F06005E02068006940F020002668306176
:1025D00000205BE7606A40F480206062012055E7DC
:1025E0000146002091F82020012A01D0022A11D1B1
:1025F0000B689B6803F0806303B1401C0B689B6809
:1026000003F0006303B1401C0B689B6803F0805328
:1026100003B1401C70472DE9F05F04460025206897
:1026200046692068D0F80490206887682068D0F850
:102630000CA02068D0F810B02068D0F8188006F000
:102640000100002855D007F00100C0B10120216829
:10265000886007F0020018B1204600F060FA0EE032
:1026600007F0040010B145F4006508E007F0080029
:1026700010B145F4805502E0204600F04FFA07F40F
:102680008070C8B14FF480702168886007F40070D2
:1026900018B1204600F045FA0EE007F4806010B152
:1026A00045F4005508E007F4006010B145F480459A
:1026B00002E0204600F034FA07F48030C8B14FF44D
:1026C00080302168886007F4003018B1204600F09F
:1026D0002AFA0EE007F4802010B145F4004508E026
:1026E00007F4002010B145F4803502E0204600F0E8
:1026F00019FA06F0080038B10AF0100020B145F4CC
:10270000007510202168C86006F0040040B10AF08E
:10271000080028B108202168C860204600F0B0F900
:1027200006F0020038B12068C06800F0030010B164
:10273000204600F0A7F906F0400038B10BF0100079
:1027400020B145F4806510202168086106F0200062
:1027500040B10BF0080028B108202168086120462C
:1027600000F0AAF906F0100038B12068006900F006
:10277000030010B1204600F0A0F906F4003040B18B
:1027800009F0100028B1102021684860204600F0B0
:1027900095F906F4803040B109F0080028B108200E
:1027A00021684860204600F0BFF906F4004088B375
:1027B00009F0040078B306F4807020B108F001003D
:1027C00008B145F0010506F4007020B108F00200E0
:1027D00008B145F0020506F4806020B108F004005D
:1027E00008B145F0040506F40060A0B108F07000DF
:1027F00088B108F07000402817D006DC10280BD0F4
:1028000020280CD0302819D10CE0502810D0602896
:1028100014D110E01DE019E045F008050FE045F087
:1028200010050CE045F0200509E045F0400506E004
:1028300045F0800503E045F4807500E000BF00BF6F
:102840002068806920F07000216888610420216878
:1028500048602DB1606A284360622046FFF702FE9F
:10286000BDE8F09F70B504460CB9012070BD94F826
:10287000200010B9204600F0AFF82068006840F052
:1028800001002168086000F0D7FA05460DE000F06D
:10289000D3FA401B0A2808D9606A40F4003060620D
:1028A000052084F820000120E0E72068406800F05F
:1028B00001000028EBD02068006820F002002168A9
:1028C000086000F0B9FA05460DE000F0B5FA401BCB
:1028D0000A2808D9606A40F400306062052084F854
:1028E00020000120C2E72068406800F002000028B4
:1028F000EBD1207E012806D12068006840F08000DE
:102900002168086005E02068006820F080002168E8
:102910000860607E012806D12068006840F0400011
:102920002168086005E02068006820F04000216808
:102930000860A07E012806D12068006840F02000D1
:102940002168086005E02068006820F02000216808
:102950000860E07E012806D12068006820F01000A1
:102960002168086005E02068006840F010002168D8
:102970000860207F012806D12068006840F0080028
:102980002168086005E02068006820F008002168E0
:102990000860607F012806D12068006840F00400CC
:1029A0002168086005E02068006820F004002168C4
:1029B0000860D4E9020108432169084361690843BA
:1029C0006168491E08432168C861002060620120D7
:1029D00084F82000002049E710B586B00446142191
:1029E00001A8FDF7B7FD23492068884240D100BF08
:1029F000002000902048006840F000701E490860E8
:102A00000846006800F00070009000BF00BF00BFE3
:102A10000020009018481038006840F00100164966
:102A2000103908600846006800F00100009000BFFF
:102A300000BF4FF4C050019002200290012003908B
:102A4000032004900920059001A90C4800F0ECF83F
:102A500000220521142000F09FFA142000F08CFAC7
:102A600000220521162000F097FA162000F084FAC3
:102A700006B010BD00640040403802400000024033
:102A80007047000010B58AB004460A4920680968FA
:102A900088420DD100200190029001AB03AA0021D1
:102AA0002046FFF7E0FC01A9039802F0D5F900BF2A
:102AB0000AB010BD1006002070477047704770B50F
:102AC000044694F82000012822D1022084F8200036
:102AD0002068006820F001002168086000F0ACF96F
:102AE00005460DE000F0A8F9401B0A2808D9606AE5
:102AF00040F400306062052084F82000012070BDA1
:102B00002068406800F001000028EBD16062F6E721
:102B1000606A40F4002060620120F0E7704770476F
:102B20007047704770477047704770B50446A56D91
:102B300000F082F9064694F83500022808D080207B
:102B4000606500BF002084F8340000BF012070BD24
:102B50002068006820F0160021680860206840693D
:102B600020F0800021684861206C08B9A06C28B171
:102B70002068006820F0080021680860206800686C
:102B800020F001002168086010E000F055F9801B7A
:102B900005280BD920206065032084F8350000BF8C
:102BA000002084F8340000BF0320D0E720680068CC
:102BB00000F001000028E8D194F85C103F20884024
:102BC000A860012084F8350000BF002084F834009C
:102BD00000BF00BFBBE7014691F83500022803D0D3
:102BE0008020486501207047052081F8350008687D
:102BF000006820F001000A6810600020F3E7000080
:102C000070B5044600F018F906462546681C10B158
:102C100004480078054400BF00F00EF9801BA8426C
:102C2000FAD370BD18000020F8B502460B46002507
:102C3000002400200021D6E0012606FA01F51E68D6
:102C400006EA0504AC4274D11E7906F00306012E93
:102C500004D01E7906F00306022E13D190684F00AF
:102C60000326BE40B0434F00DE68BE403043906054
:102C7000506801268E40B0431E79C6F300168E4080
:102C8000304350601E7906F00306032E09D0D06849
:102C90004F000326BE40B0434F009E68BE40304305
:102CA000D0601E7906F00306022E13D1CF0802F180
:102CB000200656F827004E07F70E0F26BE40B043F9
:102CC0004F07FF0E1E69BE403043CF0802F12006B9
:102CD00046F8270010684F000326BE40B0431E7917
:102CE00006F003064F00BE40304310605E6806F4F5
:102CF0004036002E76D000BF002600963C4E366847
:102D000046F480463A4F3E603E46366806F48046BA
:102D1000009600BF00BF374E8F0856F827008E0779
:102D2000370F0F26BE40B043334EB24202D10026C9
:102D300024E057E0314EB24201D101261EE0304E70
:102D4000B24201D1022619E02E4EB24201D1032631
:102D500014E02D4EB24201D104260FE02B4EB242B8
:102D600001D105260AE02A4EB24201D1062605E02D
:102D7000284EB24201D1072600E008268F073F0FF8
:102D8000BE4030431B4E8F0846F82700224E306865
:102D9000A0435E6806F4801606B120431E4E3060E4
:102DA000361D3068A0435E6806F4001606B1204365
:102DB000194E361D3060184E361F3068A0435E68CD
:102DC00006F4003606B12043134E361F3060361F1E
:102DD0003068A0435E6806F4803606B120430E4E8C
:102DE000083E3060491C1029FFF426AFF8BD0000F2
:102DF000443802400838014000000240000402400C
:102E000000080240000C0240001002400014024082
:102E100000180240001C0240083C014002461369B1
:102E20000B400BB1012000E0002070470AB1816126
:102E300001E00B048361704701480068704700009F
:102E4000100000200348006803490978084401493C
:102E500008607047100000201800002010B50D48D1
:102E6000006840F400700B4908600846006840F4B0
:102E7000806008600846006840F4807008600320A5
:102E800000F0C8F80F2000F007F800F04BF8002021
:102E900010BD0000003C024070B588B0044600251B
:102EA0000026002221462D2000F076F82D2000F08B
:102EB00063F800BF002001901648006840F480705D
:102EC000144908600846006800F48070019000BF53
:102ED00000BF02A903A800F073F900F099F94500BA
:102EE0000D48B5FBF0F0461E0C480D49086040F255
:102EF000E7310B48C160466000210161816000F04C
:102F00004FFC20B9064800F07FFC08B070BD0120DE
:102F1000FBE700004038024040420F000020004024
:102F20004807002008B500BF002000901148006845
:102F300040F480400F4908600846006800F4804073
:102F4000009000BF00BF00BF00200090081F006875
:102F500040F08050091F08600846006800F080506B
:102F6000009000BF00BF00220F21901E00F014F857
:102F700008BD00004438024001460846002809DB2D
:102F800000F01F0301229A4043099B0003F1E02354
:102F9000C3F8002100BF70472DE9F05F80460D4661
:102FA0001646002703F0E4FF074639462A46334613
:102FB00001F00700C0F1070ABAF1040F02D94FF07F
:102FC000040A01E0C0F1070AD14600F1040ABAF18F
:102FD000070F02D24FF0000A01E0A0F1030AD44625
:102FE0004FF0010A0AFA09FAAAF1010A0AEA020AEA
:102FF0000AFA0CFA4FF0010B0BFA0CFBABF1010BC8
:103000000BEA030B4AEA0B042146404603F0B8FFE3
:10301000BDE8F09F00BF00F00702064B19684FF6AD
:10302000FF031940044B0B4343EA0221014B196093
:1030300000BF70470CED00E00000FA0570B50446D3
:103040000D460CB9012070BD5848006800F007001B
:10305000A84209D255490D700846006800F00700E3
:10306000A84201D00120EEE7207800F002000228FB
:103070001DD1207800F00400042805D14C480068D8
:1030800040F4E0504A490860207800F00800082821
:1030900005D14748006840F460404549086044480D
:1030A000006820F0F000A1680843414908602078DA
:1030B00000F00100A8B36068012807D13C48083837
:1030C0000068C0F34040B8B90120BCE7606802283E
:1030D00002D06068032807D1354808380068C0F37B
:1030E000406048B90120AEE7314808380068C0F3B5
:1030F000400008B90120A6E72D48006820F0030031
:10310000616808432A490860FFF796FE064609E011
:10311000FFF792FE801B41F28831884202D90320DA
:1031200091E707E02248006800F00C006168B0EB0E
:10313000810FEDD11D48006800F00700A84209D9B1
:103140001A490D700846006800F00700A84201D037
:10315000012078E7207800F00400042807D1144803
:10316000006820F4E050E1680843114908602078C5
:1031700000F00800082808D10D48006820F46040DD
:10318000216940EAC1000A49086000F061F8084975
:103190000968C1F30311074A515CC8400649086039
:1031A00006480068FFF778FE00204CE7003C02402C
:1031B0000838024030BE00081C0000201400002027
:1031C0000F2202600D4A126802F0030242600B4AAD
:1031D000126802F0F0028260084A126802F4E052BB
:1031E000C260064A126802F46042D2080261044AD0
:1031F000126802F007020A607047000008380240B7
:10320000003C024001480068704700001C0000209C
:1032100000B5FFF7F7FF04490968C1F38221034AAB
:10322000515CC84000BD00000838024040BE0008A4
:1032300000B5FFF7E7FF04490968C1F34231034ACB
:10324000515CC84000BD00000838024040BE000884
:103250002DE9F047002400250026A14625480068F6
:1032600000F00C0020B1042805D008283AD105E070
:10327000DFF8849039E0DFF8849036E01D48001FC5
:10328000006800F03F041B48001F006800F4800045
:1032900078B11A481749091F0968C1F38811A0FBC2
:1032A00001700146224600233846FDF75DF80546C9
:1032B0000EE011480F49091F0968C1F38811A0FBEE
:1032C00001700146224600233846FDF74DF80546B9
:1032D0000848001F0068C0F30140401C4600B5FBD1
:1032E000F6F902E0DFF8109000BF00BF4846BDE8E5
:1032F000F0870000083802400024F40000127A0031
:10330000F8B504460CB90120F8BD207800F00100A2
:10331000002874D0F948006800F00C0004280DD093
:10332000F648006800F00C00082813D1F348001F8D
:10333000006800F48000B0F5800F0BD1EF4808382A
:103340000068C0F34040002859D06068002856D17A
:103350000120D9E700BF6068B0F5803F08D1E74899
:103360000838006840F48030E449083908601EE0FD
:103370006068B0F5A02F0DD1E0480838006840F42F
:103380008020DE49083908600846006840F4803033
:1033900008600CE0D9480838006820F48030D7492C
:1033A000083908600846006820F48020086000BFE3
:1033B000606890B1FFF740FD054606E0FFF73CFD71
:1033C000401B642801D903209EE7CC4808380068D8
:1033D000C0F340400028F1D011E0FFF72DFD054675
:1033E00006E0FFF729FD401B642801D903208BE785
:1033F000C24808380068C0F340400028F1D1207866
:1034000000F0020002285FD1BC48006800F00C0008
:1034100058B1BA48006800F00C0008281CD1B74821
:10342000001F006800F48000B0B9B4480838006894
:10343000C0F3400020B1E068012801D0012063E71B
:10344000AE480838006820F0F800216940EAC10061
:10345000AA490839086037E0E06800B30120A849AC
:103460000860FFF7E9FC054606E0FFF7E5FC401BB6
:10347000022801D9032047E7A04808380068C0F3B4
:1034800040000028F1D09D480838006820F0F8007E
:10349000216940EAC10099490839086014E0002018
:1034A00097490860FFF7C8FC054606E0FFF7C4FC33
:1034B000401B022801D9032026E7904808380068FD
:1034C000C0F340000028F1D1207800F0080008285F
:1034D0002CD16069A8B101208A490860FFF7ACFCD3
:1034E000054606E0FFF7A8FC401B022801D903208F
:1034F0000AE782486C300068C0F340000028F1D031
:1035000014E000207F490860FFF796FC054606E0BE
:10351000FFF792FC401B022801D90320F4E677480C
:103520006C300068C0F340000028F1D1207800F032
:103530000400042870D1002770483830006800F07B
:10354000805090B900BF002000906C48383000686F
:1035500040F080506949383108600846006800F042
:103560008050009000BF00BF01276748006800F44A
:103570008070B0B96448006840F4807062490860A7
:10358000FFF75AFC054606E0FFF756FC401B0228F1
:1035900001D90320B8E65C48006800F48070002878
:1035A000F2D000BFA068012808D1544868300068F4
:1035B00040F001005149683108601DE0A06805280D
:1035C0000DD14E486830006840F004004B49683126
:1035D00008600846006840F0010008600CE04748B9
:1035E0006830006820F001004449683108600846EE
:1035F000006820F00400086000BFA068A8B1FFF7D1
:103600001BFC054609E0FFF717FC401B41F288311F
:10361000884202D9032077E626E0384868300068FF
:10362000C0F340000028EED013E0FFF705FC05468C
:1036300008E0FFF701FC401B41F28831884201D9C4
:10364000032061E62D4868300068C0F34000002880
:10365000EFD1012F07D129483830006820F0805081
:1036600026493831086000BFA069002845D02348AA
:10367000006800F00C0008285DD0A069022845D140
:1036800000201F490866FFF7D7FB054606E0FFF755
:10369000D3FB401B022801D9032035E61748083820
:1036A0000068C0F340600028F1D1D4E90701084365
:1036B000616A40EA81110122A06AC2EB500041EA2E
:1036C00000412C20005D41EA00600C49091F0860A0
:1036D00001200B490866FFF7AFFB054606E0FFF740
:1036E000ABFB401B022801D903200DE60348083834
:1036F0000068C0F340600028F1D049E0083802407B
:1037000000004742800E47420070004000202149DF
:103710000866FFF791FB054606E0FFF78DFB401BAF
:10372000022801D90320EFE51B480068C0F3406080
:103730000028F2D12CE0A069012800D1E4E5164868
:10374000001D0668A069012820D006F48001E06908
:1037500081421BD106F03F01206A814216D147F613
:10376000C0703040616AB0EB811F0FD106F4403168
:103770000122A06AC2EB5000B1EB004F06D106F067
:1037800070612C20005DB1EB006F01D00120BBE522
:103790000020B9E5000047420038024070477047FA
:1037A00010B504460CB9012010BD94F83D0028B9AD
:1037B000002084F83C00204600F025F8022084F820
:1037C0003D00211D206802F0C3FF012084F846005F
:1037D00000BF84F83E0001213F20015540200155E3
:1037E0004120015500BF00BF012084F84200432062
:1037F0000155442001554520015500BF012084F8A2
:103800003D000020D0E77047014691F83D000128B7
:1038100001D001207047022081F83D000868C0688F
:1038200040F001000B68D8601A4B086898421BD022
:103830000868B0F1804F17D0174B0868984213D032
:10384000164B086898420FD0154B086898420BD069
:10385000144B0868984207D0134B0868984203D06D
:10386000124B086898420CD10868806800F0070283
:10387000062A0CD00868006840F001000B68186048
:1038800005E00868006840F001000B68186000203F
:10389000C0E70000000001400004004000080040B4
:1038A000000C0040000401400040014000180040AE
:1038B000704710B5044620680069C0F34000D8B1D5
:1038C0002068C068C0F34000B0B16FF0020021680A
:1038D0000861012020772068806900F0030018B19A
:1038E0002046FFF7E5FF05E0204600F0ADF8204652
:1038F00000F0ABF80020207720680069C0F380005A
:10390000D8B12068C068C0F38000B0B16FF0040087
:1039100021680861022020772068806900F44070E7
:1039200018B12046FFF7C4FF05E0204600F08CF8F0
:10393000204600F08AF80020207720680069C0F354
:10394000C000D8B12068C068C0F3C000B0B16FF04B
:10395000080021680861042020772068C06900F011
:10396000030018B12046FFF7A3FF05E0204600F052
:103970006BF8204600F069F8002020772068006985
:10398000C0F30010D8B12068C068C0F30010B0B117
:103990006FF0100021680861082020772068C06956
:1039A00000F4407018B12046FFF782FF05E0204682
:1039B00000F04AF8204600F048F800202077206800
:1039C000006900F0010058B12068C06800F00100F3
:1039D00030B16FF0010021680861204600F036F830
:1039E00020680069C0F3C01058B12068C068C0F3F7
:1039F000C01030B16FF08000216808612046FFF7E9
:103A0000CDFE20680069C0F3801058B12068C068FE
:103A1000C0F3801030B16FF040002168086120468B
:103A200000F020F820680069C0F3401058B1206809
:103A3000C068C0F3401030B16FF020002168086109
:103A40002046FFF7ACFE10BD7047704710B5044626
:103A500003492068884201D1FFF7F4F910BD000046
:103A60000020004070477047704700002DE9F84F74
:103A70000446206805682068C668206847694FF0DA
:103A80000009CA4605F00F09B9F1000F0AD105F087
:103A9000200038B106F0200020B1204602F01CFFC3
:103AA000BDE8F88FB9F1000F7CD007F0010018B91C
:103AB00006F49070002875D005F0010030B106F4CE
:103AC000807018B1206C40F00100206405F0040003
:103AD00030B107F0010018B1206C40F00200206402
:103AE00005F0020030B107F0010018B1206C40F081
:103AF0000400206405F0080048B106F0200010B969
:103B000007F0010018B1206C40F008002064206C20
:103B1000002846D005F0200028B106F0200010B1A2
:103B2000204602F0D9FE20684069C0F3801A206C5C
:103B300000F0080010B9BAF1000F2DD0204602F0B5
:103B400085FE2068406900F04000402820D100BF79
:103B500000BF2168143151E8001F21F040002168A6
:103B6000143141E80002002AF3D100BFA06B50B12C
:103B70007548A16B0865A06BFFF72DF888B1A06BA5
:103B8000016D88470DE02046FFF76EFF09E009E070
:103B90002046FFF769FF04E02046FFF765FF00209D
:103BA00020647DE7206B012876D105F01000002805
:103BB00072D006F010000028FAD000BF002000905C
:103BC00020680068009020684068009000BF00BF37
:103BD0002068406900F0400040285ED1A06B00687A
:103BE00040681FFA80F8B8F1000F54D0A08D40450E
:103BF00051DDA4F82E80A06BC069B0F5807F43D062
:103C000000BF00BF21680C3151E8001F21F4807013
:103C100021680C3141E80002002AF3D100BF00BF47
:103C200000BF2168143151E8001F21F00100216814
:103C3000143141E80002002AF3D100BF00BF00BFE9
:103C40002168143151E8001F21F04000216814312F
:103C500041E80002002AF3D100BF202084F83E0092
:103C60000020206300BF00BF21680C3151E8001F15
:103C700021F0100021680C3141E80002002AF3D144
:103C800000BFA06BFEF751FFA08DE28D801A81B2BC
:103C90002046FFF7E8FE03E740E0A08DE18D401AE3
:103CA0001FFA80F8E08DC0B3B8F1000F35D000BF27
:103CB00000BF21680C3151E8001F21F49070216889
:103CC0000C3141E80002002AF3D100BF00BF00BF61
:103CD0002168143151E8001F21F0010021681431DE
:103CE00041E80002002AF3D100BF202084F83E0002
:103CF0000020206300BF00BF21680C3151E8001F85
:103D000021F0100021680C3141E80002002AF3D1B3
:103D100000BF41462046FFF7A6FEC1E605F0800041
:103D200030B106F0800018B1204602F08CFFB7E6F3
:103D300005F0400030B106F0400018B1204602F016
:103D4000BBFDADE600BFABE63968000810B5044620
:103D50000CB9012010BDA06900B100E000BF94F8CB
:103D60003D0028B9002084F83C00204600F028F8E7
:103D7000242084F83D002068C06820F400502168A9
:103D8000C860204602F024FE2068006920F49040BC
:103D9000216808612068406920F02A002168486194
:103DA0002068C06840F400502168C860002020648A
:103DB000202084F83D0084F83E000020CAE700007F
:103DC00010B586B00446142101A8FCF7C3FB88494E
:103DD0002068884239D100BF0020009085480068E3
:103DE00040F40020834908600846006800F4002081
:103DF000009000BF00BF00BF002000907D48103839
:103E0000006840F004007B491039086008460068EB
:103E100000F00400009000BF00BF4FF4406001902C
:103E200002200290012003900320049008200590B6
:103E300001A97148FEF7F8FE002205213420FFF7A2
:103E4000ABF83420FFF798F8CFE06C49206888423F
:103E50004DD100BF002000906648006840F48010FB
:103E6000644908600846006800F48010009000BFB4
:103E700000BF00BF002000905E481038006840F08E
:103E800004005C49103908600846006800F004002E
:103E9000009000BF00BF00BF0020009008460068EF
:103EA00040F0080008600846006800F00800009034
:103EB00000BF00BF881401900220029001200390EF
:103EC000032004900820059001A94B48FEF7ACFEA2
:103ED000042001900220029001200390032004900E
:103EE0000820059001A94648FEF79EFE7DE0454961
:103EF000206888423BD100BF002000903D48001D53
:103F0000006840F010003B49091D08600846006841
:103F100000F01000009000BF00BF00BF0020009024
:103F200034481038006840F0010032491039086008
:103F30000846006800F00100009000BF00BF4FF489
:103F4000C0600190022002900120039003200490A1
:103F50000720059001A92C48FEF766FE00220521E6
:103F60002520FFF719F82520FFF706F83DE027493F
:103F70002068884239D100BF002000901D48001DF4
:103F8000006840F020001B49091D086008460068D1
:103F900000F02000009000BF00BF00BF0020009094
:103FA00014481038006840F00400124910390860C5
:103FB0000846006800F00400009000BF00BFC02069
:103FC0000190022002900120039003200490082019
:103FD000059001A90848FEF727FE00220521472089
:103FE000FEF7DAFF4720FEF7C7FF06B010BD00005E
:103FF000004C0040403802400008024000500040A1
:10400000000C02400010014000000240001401407A
:1040100070B504460D46164694F83E00202816D189
:1040200005B10EB9012070BD00BF94F83C00012815
:1040300001D10220F7E7012084F83C0000BF0020F6
:10404000206332462946204602F0D8FDEBE70220E5
:10405000E9E7000010B586B00446344920680968D5
:10406000884230D1182232A16846FCF739FA364826
:104070000168CDF80B108188ADF80F1080798DF8AC
:1040800011004FF6FF7316226946304800F06AF8B7
:104090002D48C0790D2815D12B48007A0A2811D156
:1040A00000200DE02849095C3039294A1154264A7C
:1040B000011D515C3039CAB22549C91C0A54401C43
:1040C0000228EFDD00BF21492068096888420DD130
:1040D00020480078FB2802D102201F4908601D48B3
:1040E0000078FA2802D101201B4908601B4920688A
:1040F0000968884218D11A4800783F2814D1184816
:10410000C079212810D100200CE0154A411C525CD6
:104110000F49891D0A54124A011D525C0C4909318C
:104120000A54401C0228F0DD06B010BDC006002075
:10413000FFFFFF74312E7478743D220000000000F0
:10414000000022FFFFFF00004C5500200407002064
:10415000A0550020B4030020885500203806002018
:10416000AC0300202DE9F84F04460E461746994649
:104170004FF0000A94F83D0020285AD106B117B933
:104180000120BDE8F88F00BF94F83C00012801D160
:104190000220F6E7012084F83C0000BF00202064E4
:1041A000212084F83D00FEF747FE8246A784E7847D
:1041B000A068B0F5805F04D1206910B90025B04631
:1041C00002E035464FF0000800BF002084F83C00B4
:1041D00000BF1BE05346002280212046CDF800900E
:1041E00002F061FD08B10320CBE745B9B8F8000043
:1041F000C0F308002168486008F1020803E028784D
:10420000216848606D1CE08C401EE084E08C002832
:10421000E0D15346002240212046CDF8009002F024
:1042200042FD08B10320ACE7202084F83D000020C7
:10423000A7E70220A5E7704700BFFEE730B52DEDE8
:10424000108B95B0F0EE408AB0EE609AF0EE41AA85
:104250009FEDFE0AF0EE409A9FEDFD0AB0EE40EAB7
:104260009FEDFC0AB0EE40DA9FEDFB0AB0EE40AAEB
:104270009FEDFA0AF0EE40EAB5EEC09AF1EE10FAC0
:1042800033D8F5EEC08AF1EE10FA2ED8B1EE490A15
:10429000B0EE409AB1EE680AF0EE408A18EE900A4D
:1042A00007F08AFC41EC1C0B19EE100A07F084FCA5
:1042B000B0EE4C1AF0EE6C1ACDE910019DED100B2A
:1042C00003F08EF98DED120B9DED120B51EC100BDE
:1042D00006F0A0FE0BEE100A39EE8B0AB0EE40BAE3
:1042E000B1EE4B0AB0EE40BA21E018EE900A07F0AA
:1042F00063FCCDE9100119EE100A07F05DFC41ECFA
:104300001C0B9DED101BB0EE4C0AF0EE6C0A03F096
:1043100067F98DED120B9DED120B51EC100B06F0B1
:1043200079FE0BEE100AB1EE4B0AB0EE40BA19EE70
:10433000100A07F041FC9FEDCA1BCDE90C019DED71
:104340000C0B03F0A9FA8DED100B18EE900A07F094
:1043500033FC9FEDC31BCDE90C019DED0C0B03F06D
:104360009BFA8DED0E0B9DED100B53EC102B9DED7C
:104370000E0B51EC100B06F07FFECDE912019DED06
:10438000120B04F015F9B0EE40CAF0EE60CA51EC21
:104390001C0B06F03FFE0DEE900AB0EE000A2DEE6B
:1043A000000A20EE0A0A10EE101A084607F004FC74
:1043B000CDE90E011AEE100A07F0FEFB41EC1C0BD2
:1043C0009FEDA71BB0EE4C0AF0EE6C0A03F064FA06
:1043D0008DED0A0B1DEE100A07F0EEFB41EC1C0BF5
:1043E0009FED9F1BB0EE4C0AF0EE6C0A03F054FAFE
:1043F0008DED060B3AEECE0A10EE101A084607F0C5
:10440000DBFB41EC1C0B9FED961BB0EE4C0AF0EE73
:104410006C0A03F041FA8DED020B3DEEEE0A10EE50
:10442000101A084607F0C8FB41EC1C0B9FED8C1BD3
:10443000B0EE4C0AF0EE6C0A03F02EFA8DED000B94
:104440009DED020B53EC102B9DED000B51EC100B6E
:1044500006F012FECDE904019DED060B53EC102B86
:104460009DED040B51EC100B07F0BCFACDE90801EF
:104470009DED0A0B53EC102B9DED080B51EC100B2E
:1044800007F0B0FACDE90C019DED0E0B53EC102BAB
:104490009DED0C0B51EC100B06F0AAFECDE91001BE
:1044A0009DED100B02F084FD8DED120B9DED120BB6
:1044B00051EC100B06F0AEFD08EE100A3AEECE0AF3
:1044C00010EE101A084607F077FB41EC1C0B18EEB3
:1044D000100A07F071FBCDE906019DED060B04F013
:1044E00003F88DED0A0B1AEE100A07F065FBCDE913
:1044F00008019DED0A0B53EC102B9DED080B51ECC0
:10450000100B07F063F853EC1C2BCDE90C019DED6B
:104510000C0B51EC100B07F059F8CDE9100118EE17
:10452000100A07F049FBCDE902019DED020B03F0F3
:104530004FF9B0EE40CAF0EE60CA1AEE100A07F06A
:104540003BFB53EC1C2BCDE904019DED040B51EC1E
:10455000100B07F03BF8CDE908011DEE100A07F03B
:104560002BFBCDE906019DED080B53EC102B9DEDC7
:10457000060B51EC100B06F07FFD3DEEEE0ACDE987
:104580000C0110EE101A084607F016FBCDE90A01DF
:104590009DED0C0B53EC102B9DED0A0B51EC100B09
:1045A00007F014F8CDE90E019DED100B53EC102B24
:1045B0009DED0E0B51EC100B07F014FACDE9120132
:1045C0009DED120B51EC100B06F024FD044618EE85
:1045D000100A07F0F1FACDE902019DED020B03F09C
:1045E000F7F88DED040B1AEE100A07F0E5FA41EC2E
:1045F0001C0B9DED040B53EC102B06F0E7FFCDE9EF
:1046000008011DEE100A07F0D7FACDE906019DED6D
:10461000080B53EC102B9DED060B51EC100B06F024
:104620002BFD3AEECE0ACDE90C0110EE101A084629
:1046300007F0C2FACDE90A019DED0C0B53EC102BEB
:104640009DED0A0B51EC100B0EE00000D00F49401D
:104650006666A9420000A2420000CD420000F4427A
:10466000000000000000004006F0B0FFCDE910019E
:1046700018EE100A07F0A0FACDE90A019DED0A0B29
:1046800003F032FFB0EE40CAF0EE60CA3DEEEE0A33
:1046900020EE0A0A10EE101A084607F08DFA53ECC5
:1046A0001C2BCDE90C019DED0C0B51EC100B06F011
:1046B0008DFFCDE90E019DED100B53EC102B9DED00
:1046C0000E0B51EC100B06F0D7FCCDE912019DED5D
:1046D000120B51EC100B06F09DFC0546284607F026
:1046E0006BFACDE91001204607F066FA41EC1C0B8D
:1046F0009DED101BB0EE4C0AF0EE6C0A02F070FF5C
:104700008DED120B9DED120B51EC100B06F082FC9F
:104710000BEE900AF0EE000A89EEA00A30EE6B0A6A
:1047200030EE48FACBEE290A194890ED000A9FEDC9
:10473000191A00EE810A184880ED000ACBEEA90A8A
:10474000134890ED010A9FED131A00EE810A1248FA
:1047500080ED010AB1EE480AC0EE290A0C4890ED3E
:10476000020A9FED0C1A00EE810A0B4880ED020A46
:10477000CFEE290A064890ED030A9FED061A00EED7
:10478000810A054880ED030A15B0BDEC108B30BDE1
:10479000BC05002000003443AC5500202DE9F04159
:1047A0002DED028B04460F461546B0EE408A1E469C
:1047B0006C48007898B16C496C48FDF75DFC6C4919
:1047C0006C48FDF759FC0020664908706A4908608A
:1047D0006A4908609FED6A0A6A4880ED000A6948E4
:1047E00090ED000AB0EEC00AF0EEC80A9FED661A1E
:1047F00070EEC10AB4EEE00AF1EE10FA1DD8B7EE81
:10480000000AB4EEC08AF1EE10FA08DD90ED000A5D
:10481000DFED5E0A30EE200A80ED000A08E059481C
:1048200090ED000ADFED590A30EE600A80ED000AD3
:10483000544890ED000AB0EE408A4F4800680428C2
:104840000FDBB7EE000AB4EEC08AF1EE10FA04DD19
:104850009FED4F0AB0EE408A03E09FED4E0AB0EEA6
:10486000408A4648006820B1012844D0022875D10A
:1048700066E084ED008AB7EE000AB4EEC08AF1EE7D
:1048800010FA18DD3A48807868B1394890F9030089
:10489000022808DC36493748FDF7EEFB3648006849
:1048A000401C3549086001222F49304801F0F4FAD4
:1048B00085ED000A17E02C48807868B12A4890F905
:1048C0000300022808DC28492848FDF7D5FB2A48C0
:1048D0000068401C2849086001222549254801F04C
:1048E000DBFA85ED000A24480068864202D10120E7
:1048F0002249086032E084ED008AB7EE000AB4EE87
:10490000C08AF1EE10FA09DD2348807B18B92348EC
:1049100090F8360010B1022018490860BFEE000A76
:10492000B4EEC08AF1EE10FA09D21C48807B18B9A7
:10493000194890F8360010B10220104908600DE0C7
:104940002A463946204600F0BFFE30B10120054915
:104950000870BDEC028BBDE8F08100BF00BF0020F5
:10496000F7E70000F4030020900500200805002070
:104970009405002048050020F8030020FC030020D7
:104980000000000000040020000020420000A042BF
:1049900000803B4500803BC588040020C8040020FF
:1049A0002DE9F0412DED028B07460C461546B0EE81
:1049B000408A1E466C48007898B16C496C48FDF7F7
:1049C0005BFB6C496C48FDF757FB0020664908709B
:1049D0006A4908606A4908609FED6A0A6A4880ED82
:1049E000000A694890ED000AB0EEC00AF0EEC80A6D
:1049F0009FED661A70EEC10AB4EEE00AF1EE10FA0D
:104A00001DD8B7EE000AB4EEC08AF1EE10FA08DD48
:104A100090ED000ADFED5E0A30EE200A80ED000A1C
:104A200008E0594890ED000ADFED590A30EE600ABF
:104A300080ED000A544890ED000AB0EE408A4F48DD
:104A4000006804280FDBB7EE000AB4EEC08AF1EE6E
:104A500010FA04DD9FED4F0AB0EE408A03E09FEDAF
:104A60004E0AB0EE408A4648006820B1012844D082
:104A7000022875D166E084ED008AB7EE000AB4EE34
:104A8000C08AF1EE10FA18DD3848807868B13748EE
:104A900090F90300022808DC34493548FDF7ECFAA8
:104AA00036480068401C35490860002231493248C8
:104AB00001F0F2F985ED000A17E02E48807868B120
:104AC0002C4890F90300022808DC2A492A48FDF7FF
:104AD000D3FA2A480068401C28490860002223496C
:104AE000234801F0D9F985ED000A24480068864280
:104AF00002D101202249086032E084ED008AB7EE3D
:104B0000000AB4EEC08AF1EE10FA09DD234880797C
:104B100018B9234890F8360010B1022018490860EF
:104B2000BFEE000AB4EEC08AF1EE10FA09D21B48BB
:104B300090F8360010B91A48807910B10220104957
:104B400008600DE02A462146384600F0BDFD30B130
:104B5000012005490870BDEC028BBDE8F08100BF63
:104B600000BF0020F7E70000E403002088050020D4
:104B7000880400208C050020C8040020E8030020E1
:104B8000EC03002000000000F00300200000704251
:104B90000000A04200803B4500803BC50805002086
:104BA0004805002047E10020A349C870A349C87008
:104BB000A349C870A349C8700125012601274FF0F9
:104BC00001080024E3E0A04A02EBC40291889E4A57
:104BD00052F83400FEF722F908B1012000E000206D
:104BE000994901EBC4018871974800EBC4008079B2
:104BF00008B1012003E0944800EBC400C07908B17B
:104C0000012000E00020904901EBC401C8718F4AE7
:104C100002EBC40291888D4A52F83400FEF7FEF888
:104C200008B1012000E00020884901EBC40188712F
:104C3000864800EBC400807908B1012003E0834876
:104C400000EBC400C07908B1012000E000207F49DA
:104C500001EBC401C8717B4890F903007A4901EB6C
:104C6000C401897909B1012100E00021084440B262
:104C70007449C870724890F90300744901EBC4018B
:104C8000897909B1012100E00021084440B26C4952
:104C9000C8706D4800EBC400C07905406B4800EB5C
:104CA000C400C0790640072C70DA694A02EBC402DE
:104CB0009188674A52F83400FEF7B0F808B1012035
:104CC00000E00020624901EBC4018871604800EBFC
:104CD000C400807908B1012003E05D4800EBC40006
:104CE000C07908B1012000E00020594901EBC4015E
:104CF000C871584A02EBC4029188564A52F83400EF
:104D0000FEF78CF808B1012000E00020514901EBCA
:104D1000C40188714F4800EBC400807908B10120BC
:104D200003E04C4800EBC400C07908B1012000E06A
:104D30000020484901EBC401C871404890F90300C4
:104D4000444901EBC401897909B1012100E0002146
:104D5000084440B23949C870374890F903003C49CB
:104D600001EBC401897909B1012100E00021084467
:104D700040B23149C870374800EBC400C0790740E1
:104D8000334800EBC400C07900EA0808641C082C12
:104D9000FFF619AF2B48C078082801D1012000E0A8
:104DA0000020284908702648C078082801D1012031
:104DB00000E00020224908702048C078072801D16F
:104DC000012000E000201D4908701B48C07807281A
:104DD00001D1012000E00020174908701948C0786F
:104DE00008B9012000E00020164948701448C07836
:104DF00008B9012000E00020114948700F48C07830
:104E000008B9012000E000200C4948700A48C07829
:104E100008B9012000E00020074948700948857062
:104E20000748867005488770084680F8028005208C
:104E300004F070F800BFB6E694050020900500204D
:104E40008C0500208805002088040020C80400206C
:104E5000480500200805002070B505460E460124CF
:104E600012E004F50070A8420DD1601E00EB400076
:104E7000074901EB400031680160B1888180E0B2F0
:104E800004F0FAF870BD641C092CEADB00BFF9E7F6
:104E9000BC54002010B5014600204A1E02EB42021D
:104EA000164B03EB420292780123B3EBE21F13D1BE
:104EB0004A1E02EB4202114B03EB4202D3784A1E18
:104EC00002EB42020D4C04EB4202927803EB022209
:104ED000A2F57F40FF380FE04A1E02EB4202074B6B
:104EE00003EB4202D3784A1E02EB4202034C04EB6E
:104EF0004202927803EB022010BD0000BC54002057
:104F000030B50246012921DB08291FDC002300BF40
:104F10000F48824201DC024604E043F698208242B8
:104F200000DB0246042902DC4FF4007303E040F288
:104F3000FF13081FC1B2C2F307244800801E054DAD
:104F40002C544800401E2A54002030BD0120FCE7AC
:104F500068C5FFFFA403002070B506460D46681E15
:104F6000C4B204EB4400824901EB0010006804EB7A
:104F700044017F4A02EB01114860E8B2FFF78AFF63
:104F8000301A04EB44017A4A02EB0111086004EB89
:104F90004400114601EB0010806804EB440102EB71
:104FA00001110968084404EB440102EB0111886017
:104FB00004EB4400114601EB00108068B0F57A7FE5
:104FC00002DB4FF47A7010E004EB4400684901EB17
:104FD0000010806810F57A7F01DC664805E004EB7C
:104FE0004400634901EB0010806804EB4401604A0F
:104FF00002EB0111886004EB4400114601EB001044
:10500000D0ED030A04EB440001EB001090ED000A20
:10501000B8EEC00A20EE800A04EB440001EB001059
:1050200080ED080A04EB440001EB0010D0ED040A07
:1050300004EB440001EB001090ED020AB8EEC00A48
:1050400020EE800A04EB440001EB001080ED090A19
:1050500004EB440001EB0010006804EB440102EB98
:1050600001114968401A00EE100AB8EEC00A04EBBC
:105070004400114601EB0010D0ED050A20EE200A95
:1050800004EB440001EB001080ED0A0A04EB44003D
:1050900001EB001090ED080A04EB440001EB001056
:1050A000D0ED090A30EE200A04EB440001EB0010B9
:1050B000D0ED0A0A30EE200A04EB440001EB0010A8
:1050C00080ED0B0A04EB440001EB0010D0ED0B0A5D
:1050D00004EB440001EB001090ED060AB8EEC00AA4
:1050E000F4EEC00AF1EE10FA08DB04EB440001EB29
:1050F000001090ED060AB8EEC00A23E004EB44006D
:105100001B4901EB0010D0ED0B0A04EB440001EB4E
:10511000001090ED070AB8EEC00AF4EEC00AF1EEF6
:1051200010FA08D804EB440001EB001090ED070AD8
:10513000B8EEC00A06E004EB44000D4901EB001094
:1051400090ED0B0A04EB4400094901EB001080EDDF
:105150000B0AE9B204EB4402054B03EB021292ED99
:105160000B0ABDEEC00A10EE100AFFF7C9FE70BDB3
:10517000A400002018FCFFFF10B50E480E4908607F
:105180000620486000210C488160C1604FF4003166
:105190000161090141610021017601214176817699
:1051A0000021C17601774177FDF75CFB08B1FCF780
:1051B00071FF10BD006400401006002010B50E4ABB
:1051C00000210E4803F0FCFE0D4908600D4A002145
:1051D0000D4803F0F5FE0D4908600D4A00210D4809
:1051E00003F0EEFE0C4908600C4A00210C4803F065
:1051F000E7FE0C49086010BDA0BD0008991C00081E
:1052000000000020C4BD0008A54B000804000020D9
:10521000E8BD0008E1060008080000200CBE0008F8
:105220007D0700080C00002000B587B0142102A8FB
:10523000FBF790F900BF002001905848006840F04B
:105240001000564908600846006800F01000019000
:1052500000BF00BF00BF002001900846006840F07A
:10526000040008600846006800F00400019000BFD8
:1052700000BF00BF002001900846006840F0800099
:1052800008600846006800F08000019000BF00BF81
:1052900000BF002001900846006840F0020008604E
:1052A0000846006800F00200019000BF00BF00BF88
:1052B000002001900846006840F008000860084699
:1052C000006800F00800019000BF00BF00BF002090
:1052D00001900846006840F04000086008460068F9
:1052E00000F04000019000BF00BF00BF002001900F
:1052F0000846006840F0010008600846006800F0B9
:105300000100019000BF00BF00224FF4E05124488B
:10531000FDF78CFD7F200290002003900120049077
:1053200002A92048FDF780FC4FF460400290002065
:1053300003900120049002A91B48FDF775FC4FF271
:10534000C0300290002003900120049002A9174869
:10535000FDF76AFC4FF47C4002900020039001208E
:10536000049002A91248FDF75FFCFC200290002087
:1053700003900120049002A90948FDF755FC4FF461
:10538000E05002900120039000200490059002A9B3
:105390000348FDF749FC07B000BD0000303802406B
:1053A00000180240001002400008024000040240C1
:1053B000000C024010B50B480B4908604FF4E13077
:1053C0004860002108488160C16001610C21416191
:1053D00000218161C161FEF7B9FC08B1FCF75AFEFA
:1053E00010BD0000004C00403806002010B50B48EE
:1053F0000B4908604FF4E1304860002108488160A3
:10540000C16001610C21416100218161C161FEF730
:105410009DFC08B1FCF73EFE10BD000000500040AE
:105420007C06002010B50B480B4908604FF416505D
:105430004860002108488160C16001610C21416120
:1054400000218161C161FEF781FC08B1FCF722FEF9
:1054500010BD000000100140C006002010B50B4830
:105460000B4908604FF416504860002108488160DD
:10547000C16001610C21416100218161C161FEF7C0
:1054800065FC08B1FCF706FE10BD000000140140E9
:105490000407002000BFFEE710B50120FFF7FAFC6B
:1054A000134908600220FFF7F5FC12490860032049
:1054B000FFF7F0FC104908600420FFF7EBFC0F49F0
:1054C00008600F48D0ED031AF8EEE11AB0EE611A49
:1054D000D0ED021AF8EEE11AF0EE610AD0ED011AF1
:1054E000F8EEE11AB0EE610A01F05AF810BD0000C2
:1054F000C0030020C4030020C8030020CC03002008
:10550000885500200EB59FED5F0A8DED020A9FEDD4
:105510005D0A8DED010A9FED5B0A8DED000A5A4888
:105520004069102812D2DFE800F008121C26303A39
:10553000444E58626C76808A949F6A4601A902A8FC
:1055400000F0C0FF10B101204F49486190E06A4669
:1055500001A902A801F054FC10B102204A49486197
:1055600086E06A4601A902A8FCF7C8FB10B1032037
:10557000454948617CE06A4601A902A800F0E2FEC4
:1055800010B104204049486172E06A4601A902A8AE
:1055900000F090FD10B105203B49486168E06A4683
:1055A00001A902A800F004FF10B1062036494861A5
:1055B0005EE06A4601A902A800F0EEFA10B10720E9
:1055C0003149486154E06A4601A902A800F036FF5B
:1055D00010B108202C4948614AE06A4601A902A896
:1055E000FCF71AFC10B109202749486140E06A46DF
:1055F00001A902A800F0A6FE10B10A2022494861C4
:1056000036E06A4601A902A800F090FC10B10B2018
:105610001D4948612CE06A4601A902A800F0C8FEB5
:1056200010B10C201849486122E06A4601A902A87D
:1056300000F016FA10B10D201349486118E06A46CF
:1056400001A902A800F058FE10B10E200E494861D1
:105650000EE000236A4601A902A800F0EFFD10B198
:105660000F200949486103E001200749086000BF95
:1056700000BF9DED001ADDED010A9DED020A00F06C
:105680008FFF0EBD00000000885500200EB59FED75
:105690000B0A8DED000A01236A4601A902A800F059
:1056A000CDFD10B10120064908609DED001ADDED29
:1056B000010A9DED020A00F073FF0EBD000000001C
:1056C0008855002000BFFEE710B503460020784C47
:1056D00020747848407810B97748407858B17748B6
:1056E000407810B97648407828B1DFED762AC2EDCF
:1056F000002A002010BD9FED742ADFED730A9FED94
:10570000720ADFED711A9FED701A002028E06F4CCD
:1057100004EBC004A47944B102EE900AF8EEE22A48
:10572000B0EE083A72EEC32A01E0DFED672A72EEAE
:10573000A02AF0EE620A664C04EBC004A47944B1DE
:1057400002EE900AF8EEE22AB0EE083A72EEC32AB0
:1057500001E0DFED5D2A72EE822AB0EE622A401C83
:105760000728D4DB00202CE05A4C04EBC004A479B9
:1057700084B1032802DDB8EE083A01E0B9EE003A40
:1057800002EE900AF8EEE22A73EE222A72EE802AE6
:10579000B0EE620A504C04EBC004A47984B1032833
:1057A00002DDB8EE083A01E0B9EE003A02EE900AE6
:1057B000F8EEE22A73EE222A72EEA12AF0EE621AC5
:1057C000401C0828D0DB3D484078D0B93C484078A0
:1057D000B8B93A4890F9030002EE900AF8EEE22ACE
:1057E00080EE223A364890F9030002EE900AF8EE75
:1057F000E22AC1EEA23A73EE232A72EE812AB0EEBB
:10580000621AD2ED002AB6EE003AF4EEC32AF1EEA7
:1058100010FA00D800BFDFED312A61EE222AC2ED76
:10582000002AD2ED002AB7EE003AF4EEC32AF1EED8
:1058300010FA0BD8DFED2A2A60EE222AC3ED002AE7
:10584000DFED272A60EEA22AC1ED002AD2ED002A60
:10585000F0EEE22AB7EE003AF4EEC32AF1EE10FAC7
:1058600024D8D1ED002AF0EEE22AB7EE003AF4EEA9
:10587000C32AF1EE10FA19D8D3ED002AF0EEE22A8D
:10588000B7EE003AF4EEC32AF1EE10FA0ED815483E
:105890000068401C134C206020460068052805DB8A
:1058A000002020600120024C207423E7002021E723
:1058B00088550020900500209405002088050020D0
:1058C0008C0500200080BB4500000000080500207A
:1058D0004805002088040020C80400200000C843B8
:1058E0000000FA43E003002010B503460020534CAB
:1058F0002074DFED531AB0EE610ADFED511AF0EEBD
:10590000610ADFED4F1AB0EE611A00BF2CE04D4C7A
:1059100004EBC004A47984B1032802DDB8EE082AA0
:1059200001E0B9EE002A01EE900AF8EEE11A72EEFB
:10593000211A71EE801AB0EE610A434C04EBC004E8
:10594000A47984B1032802DDB8EE082A01E0B9EE9B
:10595000002A01EE900AF8EEE11A72EE211A71EEB9
:10596000A01AF0EE610A401C0828D0DB37484078C6
:10597000D0B937484078B8B9344890F9030001EEFF
:10598000900AF8EEE11A80EE212A314890F90300DE
:1059900001EE900AF8EEE11AC0EEA12A72EE221A88
:1059A00071EE811AB0EE611ADFED2A1A61EE211A4A
:1059B000C2ED001AD2ED001AB7EE002AF4EEC21AB8
:1059C000F1EE10FA05D8DFED241A60EE211AC3EDCE
:1059D000001AD2ED001AF0EEE11AB7EE002AF4EE4A
:1059E000C21AF1EE10FA24D8D1ED001AF0EEE11A45
:1059F000B7EE002AF4EEC21AF1EE10FA19D8D3ED80
:105A0000001AF0EEE11AB7EE002AF4EEC21AF1EE37
:105A100010FA0ED811480068401C104C2060204637
:105A200000681E2808DB002020600120034C207441
:105A300010BD0020094C20600020F9E788550020A7
:105A40000000000088040020C80400208805002011
:105A50008C0500200000484300009643DC03002032
:105A600070B505460C4616463F48007858B13F4988
:105A70003F48FCF701FB00203B4908703D490860A6
:105A8000401E3D4908603B480068062869D2DFE8AF
:105A900000F0030D1C264F5D324621462846FFF7D5
:105AA00013FE10B10120334908605AE09FED330A1C
:105AB00084ED000A3248807918B9324890F83600EF
:105AC00010B102202B4908604BE03246214628469F
:105AD000FFF70AFF10B103202649086041E02A4879
